{
  "_format": "hh-sol-artifact-1",
  "contractName": "CertificateNFT",
  "sourceName": "contracts/CertificateNFT.sol",
  "abi": [
    {
      "inputs": [],
      "stateMutability": "nonpayable",
      "type": "constructor"
    },
    {
      "inputs": [
        {
          "internalType": "address",
          "name": "sender",
          "type": "address"
        },
        {
          "internalType": "uint256",
          "name": "tokenId",
          "type": "uint256"
        },
        {
          "internalType": "address",
          "name": "owner",
          "type": "address"
        }
      ],
      "name": "ERC721IncorrectOwner",
      "type": "error"
    },
    {
      "inputs": [
        {
          "internalType": "address",
          "name": "operator",
          "type": "address"
        },
        {
          "internalType": "uint256",
          "name": "tokenId",
          "type": "uint256"
        }
      ],
      "name": "ERC721InsufficientApproval",
      "type": "error"
    },
    {
      "inputs": [
        {
          "internalType": "address",
          "name": "approver",
          "type": "address"
        }
      ],
      "name": "ERC721InvalidApprover",
      "type": "error"
    },
    {
      "inputs": [
        {
          "internalType": "address",
          "name": "operator",
          "type": "address"
        }
      ],
      "name": "ERC721InvalidOperator",
      "type": "error"
    },
    {
      "inputs": [
        {
          "internalType": "address",
          "name": "owner",
          "type": "address"
        }
      ],
      "name": "ERC721InvalidOwner",
      "type": "error"
    },
    {
      "inputs": [
        {
          "internalType": "address",
          "name": "receiver",
          "type": "address"
        }
      ],
      "name": "ERC721InvalidReceiver",
      "type": "error"
    },
    {
      "inputs": [
        {
          "internalType": "address",
          "name": "sender",
          "type": "address"
        }
      ],
      "name": "ERC721InvalidSender",
      "type": "error"
    },
    {
      "inputs": [
        {
          "internalType": "uint256",
          "name": "tokenId",
          "type": "uint256"
        }
      ],
      "name": "ERC721NonexistentToken",
      "type": "error"
    },
    {
      "inputs": [
        {
          "internalType": "address",
          "name": "owner",
          "type": "address"
        }
      ],
      "name": "OwnableInvalidOwner",
      "type": "error"
    },
    {
      "inputs": [
        {
          "internalType": "address",
          "name": "account",
          "type": "address"
        }
      ],
      "name": "OwnableUnauthorizedAccount",
      "type": "error"
    },
    {
      "anonymous": false,
      "inputs": [
        {
          "indexed": true,
          "internalType": "address",
          "name": "owner",
          "type": "address"
        },
        {
          "indexed": true,
          "internalType": "address",
          "name": "approved",
          "type": "address"
        },
        {
          "indexed": true,
          "internalType": "uint256",
          "name": "tokenId",
          "type": "uint256"
        }
      ],
      "name": "Approval",
      "type": "event"
    },
    {
      "anonymous": false,
      "inputs": [
        {
          "indexed": true,
          "internalType": "address",
          "name": "owner",
          "type": "address"
        },
        {
          "indexed": true,
          "internalType": "address",
          "name": "operator",
          "type": "address"
        },
        {
          "indexed": false,
          "internalType": "bool",
          "name": "approved",
          "type": "bool"
        }
      ],
      "name": "ApprovalForAll",
      "type": "event"
    },
    {
      "anonymous": false,
      "inputs": [
        {
          "indexed": false,
          "internalType": "uint256",
          "name": "_fromTokenId",
          "type": "uint256"
        },
        {
          "indexed": false,
          "internalType": "uint256",
          "name": "_toTokenId",
          "type": "uint256"
        }
      ],
      "name": "BatchMetadataUpdate",
      "type": "event"
    },
    {
      "anonymous": false,
      "inputs": [
        {
          "indexed": true,
          "internalType": "uint256",
          "name": "tokenId",
          "type": "uint256"
        },
        {
          "indexed": true,
          "internalType": "address",
          "name": "recipient",
          "type": "address"
        },
        {
          "indexed": false,
          "internalType": "string",
          "name": "courseId",
          "type": "string"
        },
        {
          "indexed": false,
          "internalType": "string",
          "name": "courseName",
          "type": "string"
        },
        {
          "indexed": false,
          "internalType": "string",
          "name": "tokenURI",
          "type": "string"
        }
      ],
      "name": "CertificateIssued",
      "type": "event"
    },
    {
      "anonymous": false,
      "inputs": [
        {
          "indexed": true,
          "internalType": "uint256",
          "name": "tokenId",
          "type": "uint256"
        },
        {
          "indexed": true,
          "internalType": "address",
          "name": "recipient",
          "type": "address"
        },
        {
          "indexed": false,
          "internalType": "string",
          "name": "reason",
          "type": "string"
        }
      ],
      "name": "CertificateRevoked",
      "type": "event"
    },
    {
      "anonymous": false,
      "inputs": [
        {
          "indexed": false,
          "internalType": "uint256",
          "name": "_tokenId",
          "type": "uint256"
        }
      ],
      "name": "MetadataUpdate",
      "type": "event"
    },
    {
      "anonymous": false,
      "inputs": [
        {
          "indexed": true,
          "internalType": "address",
          "name": "previousOwner",
          "type": "address"
        },
        {
          "indexed": true,
          "internalType": "address",
          "name": "newOwner",
          "type": "address"
        }
      ],
      "name": "OwnershipTransferred",
      "type": "event"
    },
    {
      "anonymous": false,
      "inputs": [
        {
          "indexed": true,
          "internalType": "address",
          "name": "from",
          "type": "address"
        },
        {
          "indexed": true,
          "internalType": "address",
          "name": "to",
          "type": "address"
        },
        {
          "indexed": true,
          "internalType": "uint256",
          "name": "tokenId",
          "type": "uint256"
        }
      ],
      "name": "Transfer",
      "type": "event"
    },
    {
      "inputs": [
        {
          "internalType": "address",
          "name": "to",
          "type": "address"
        },
        {
          "internalType": "uint256",
          "name": "tokenId",
          "type": "uint256"
        }
      ],
      "name": "approve",
      "outputs": [],
      "stateMutability": "nonpayable",
      "type": "function"
    },
    {
      "inputs": [
        {
          "internalType": "address",
          "name": "owner",
          "type": "address"
        }
      ],
      "name": "balanceOf",
      "outputs": [
        {
          "internalType": "uint256",
          "name": "",
          "type": "uint256"
        }
      ],
      "stateMutability": "view",
      "type": "function"
    },
    {
      "inputs": [
        {
          "internalType": "uint256",
          "name": "",
          "type": "uint256"
        }
      ],
      "name": "certificates",
      "outputs": [
        {
          "internalType": "address",
          "name": "recipient",
          "type": "address"
        },
        {
          "internalType": "string",
          "name": "courseId",
          "type": "string"
        },
        {
          "internalType": "string",
          "name": "courseName",
          "type": "string"
        },
        {
          "internalType": "uint256",
          "name": "issuedAt",
          "type": "uint256"
        },
        {
          "internalType": "bool",
          "name": "revoked",
          "type": "bool"
        }
      ],
      "stateMutability": "view",
      "type": "function"
    },
    {
      "inputs": [
        {
          "internalType": "string",
          "name": "",
          "type": "string"
        },
        {
          "internalType": "uint256",
          "name": "",
          "type": "uint256"
        }
      ],
      "name": "courseCertificates",
      "outputs": [
        {
          "internalType": "uint256",
          "name": "",
          "type": "uint256"
        }
      ],
      "stateMutability": "view",
      "type": "function"
    },
    {
      "inputs": [
        {
          "internalType": "uint256",
          "name": "tokenId",
          "type": "uint256"
        }
      ],
      "name": "getApproved",
      "outputs": [
        {
          "internalType": "address",
          "name": "",
          "type": "address"
        }
      ],
      "stateMutability": "view",
      "type": "function"
    },
    {
      "inputs": [
        {
          "internalType": "uint256",
          "name": "tokenId",
          "type": "uint256"
        }
      ],
      "name": "getCertificate",
      "outputs": [
        {
          "components": [
            {
              "internalType": "address",
              "name": "recipient",
              "type": "address"
            },
            {
              "internalType": "string",
              "name": "courseId",
              "type": "string"
            },
            {
              "internalType": "string",
              "name": "courseName",
              "type": "string"
            },
            {
              "internalType": "uint256",
              "name": "issuedAt",
              "type": "uint256"
            },
            {
              "internalType": "bool",
              "name": "revoked",
              "type": "bool"
            }
          ],
          "internalType": "struct CertificateNFT.CertificateData",
          "name": "",
          "type": "tuple"
        }
      ],
      "stateMutability": "view",
      "type": "function"
    },
    {
      "inputs": [
        {
          "internalType": "string",
          "name": "courseId",
          "type": "string"
        }
      ],
      "name": "getCourseCertificates",
      "outputs": [
        {
          "internalType": "uint256[]",
          "name": "",
          "type": "uint256[]"
        }
      ],
      "stateMutability": "view",
      "type": "function"
    },
    {
      "inputs": [
        {
          "internalType": "address",
          "name": "user",
          "type": "address"
        }
      ],
      "name": "getUserCertificates",
      "outputs": [
        {
          "internalType": "uint256[]",
          "name": "",
          "type": "uint256[]"
        }
      ],
      "stateMutability": "view",
      "type": "function"
    },
    {
      "inputs": [
        {
          "internalType": "address",
          "name": "owner",
          "type": "address"
        },
        {
          "internalType": "address",
          "name": "operator",
          "type": "address"
        }
      ],
      "name": "isApprovedForAll",
      "outputs": [
        {
          "internalType": "bool",
          "name": "",
          "type": "bool"
        }
      ],
      "stateMutability": "view",
      "type": "function"
    },
    {
      "inputs": [
        {
          "internalType": "address",
          "name": "recipient",
          "type": "address"
        },
        {
          "internalType": "string",
          "name": "courseId",
          "type": "string"
        },
        {
          "internalType": "string",
          "name": "courseName",
          "type": "string"
        },
        {
          "internalType": "string",
          "name": "tokenURI",
          "type": "string"
        }
      ],
      "name": "issueCertificate",
      "outputs": [
        {
          "internalType": "uint256",
          "name": "",
          "type": "uint256"
        }
      ],
      "stateMutability": "nonpayable",
      "type": "function"
    },
    {
      "inputs": [],
      "name": "name",
      "outputs": [
        {
          "internalType": "string",
          "name": "",
          "type": "string"
        }
      ],
      "stateMutability": "view",
      "type": "function"
    },
    {
      "inputs": [],
      "name": "owner",
      "outputs": [
        {
          "internalType": "address",
          "name": "",
          "type": "address"
        }
      ],
      "stateMutability": "view",
      "type": "function"
    },
    {
      "inputs": [
        {
          "internalType": "uint256",
          "name": "tokenId",
          "type": "uint256"
        }
      ],
      "name": "ownerOf",
      "outputs": [
        {
          "internalType": "address",
          "name": "",
          "type": "address"
        }
      ],
      "stateMutability": "view",
      "type": "function"
    },
    {
      "inputs": [],
      "name": "renounceOwnership",
      "outputs": [],
      "stateMutability": "nonpayable",
      "type": "function"
    },
    {
      "inputs": [
        {
          "internalType": "uint256",
          "name": "tokenId",
          "type": "uint256"
        },
        {
          "internalType": "string",
          "name": "reason",
          "type": "string"
        }
      ],
      "name": "revokeCertificate",
      "outputs": [],
      "stateMutability": "nonpayable",
      "type": "function"
    },
    {
      "inputs": [
        {
          "internalType": "address",
          "name": "from",
          "type": "address"
        },
        {
          "internalType": "address",
          "name": "to",
          "type": "address"
        },
        {
          "internalType": "uint256",
          "name": "tokenId",
          "type": "uint256"
        }
      ],
      "name": "safeTransferFrom",
      "outputs": [],
      "stateMutability": "nonpayable",
      "type": "function"
    },
    {
      "inputs": [
        {
          "internalType": "address",
          "name": "from",
          "type": "address"
        },
        {
          "internalType": "address",
          "name": "to",
          "type": "address"
        },
        {
          "internalType": "uint256",
          "name": "tokenId",
          "type": "uint256"
        },
        {
          "internalType": "bytes",
          "name": "data",
          "type": "bytes"
        }
      ],
      "name": "safeTransferFrom",
      "outputs": [],
      "stateMutability": "nonpayable",
      "type": "function"
    },
    {
      "inputs": [
        {
          "internalType": "address",
          "name": "operator",
          "type": "address"
        },
        {
          "internalType": "bool",
          "name": "approved",
          "type": "bool"
        }
      ],
      "name": "setApprovalForAll",
      "outputs": [],
      "stateMutability": "nonpayable",
      "type": "function"
    },
    {
      "inputs": [
        {
          "internalType": "bytes4",
          "name": "interfaceId",
          "type": "bytes4"
        }
      ],
      "name": "supportsInterface",
      "outputs": [
        {
          "internalType": "bool",
          "name": "",
          "type": "bool"
        }
      ],
      "stateMutability": "view",
      "type": "function"
    },
    {
      "inputs": [],
      "name": "symbol",
      "outputs": [
        {
          "internalType": "string",
          "name": "",
          "type": "string"
        }
      ],
      "stateMutability": "view",
      "type": "function"
    },
    {
      "inputs": [
        {
          "internalType": "uint256",
          "name": "tokenId",
          "type": "uint256"
        }
      ],
      "name": "tokenURI",
      "outputs": [
        {
          "internalType": "string",
          "name": "",
          "type": "string"
        }
      ],
      "stateMutability": "view",
      "type": "function"
    },
    {
      "inputs": [],
      "name": "totalSupply",
      "outputs": [
        {
          "internalType": "uint256",
          "name": "",
          "type": "uint256"
        }
      ],
      "stateMutability": "view",
      "type": "function"
    },
    {
      "inputs": [
        {
          "internalType": "address",
          "name": "from",
          "type": "address"
        },
        {
          "internalType": "address",
          "name": "to",
          "type": "address"
        },
        {
          "internalType": "uint256",
          "name": "tokenId",
          "type": "uint256"
        }
      ],
      "name": "transferFrom",
      "outputs": [],
      "stateMutability": "nonpayable",
      "type": "function"
    },
    {
      "inputs": [
        {
          "internalType": "address",
          "name": "newOwner",
          "type": "address"
        }
      ],
      "name": "transferOwnership",
      "outputs": [],
      "stateMutability": "nonpayable",
      "type": "function"
    },
    {
      "inputs": [
        {
          "internalType": "address",
          "name": "",
          "type": "address"
        },
        {
          "internalType": "uint256",
          "name": "",
          "type": "uint256"
        }
      ],
      "name": "userCertificates",
      "outputs": [
        {
          "internalType": "uint256",
          "name": "",
          "type": "uint256"
        }
      ],
      "stateMutability": "view",
      "type": "function"
    },
    {
      "inputs": [
        {
          "internalType": "uint256",
          "name": "tokenId",
          "type": "uint256"
        }
      ],
      "name": "verifyCertificate",
      "outputs": [
        {
          "internalType": "bool",
          "name": "isValid",
          "type": "bool"
        },
        {
          "components": [
            {
              "internalType": "address",
              "name": "recipient",
              "type": "address"
            },
            {
              "internalType": "string",
              "name": "courseId",
              "type": "string"
            },
            {
              "internalType": "string",
              "name": "courseName",
              "type": "string"
            },
            {
              "internalType": "uint256",
              "name": "issuedAt",
              "type": "uint256"
            },
            {
              "internalType": "bool",
              "name": "revoked",
              "type": "bool"
            }
          ],
          "internalType": "struct CertificateNFT.CertificateData",
          "name": "cert",
          "type": "tuple"
        }
      ],
      "stateMutability": "view",
      "type": "function"
    }
  ],
  "bytecode": "0x60806040523480156200001157600080fd5b50336040518060400160405280600f81526020016e4c4d5320436572746966696361746560881b81525060405180604001604052806007815260200166131354d0d1549560ca1b81525081600090816200006c9190620001b6565b5060016200007b8282620001b6565b5050506001600160a01b038116620000ad57604051631e4fbdf760e01b81526000600482015260240160405180910390fd5b620000b881620000bf565b5062000282565b600780546001600160a01b038381166001600160a01b0319831681179093556040519116919082907f8be0079c531659141344cd1fd0a4f28419497f9722a3daafe3b4186f6b6457e090600090a35050565b634e487b7160e01b600052604160045260246000fd5b600181811c908216806200013c57607f821691505b6020821081036200015d57634e487b7160e01b600052602260045260246000fd5b50919050565b601f821115620001b157600081815260208120601f850160051c810160208610156200018c5750805b601f850160051c820191505b81811015620001ad5782815560010162000198565b5050505b505050565b81516001600160401b03811115620001d257620001d262000111565b620001ea81620001e3845462000127565b8462000163565b602080601f831160018114620002225760008415620002095750858301515b600019600386901b1c1916600185901b178555620001ad565b600085815260208120601f198616915b82811015620002535788860151825594840194600190910190840162000232565b5085821015620002725787850151600019600388901b60f8161c191681555b5050505050600190811b01905550565b61202e80620002926000396000f3fe608060405234801561001057600080fd5b506004361061018e5760003560e01c8063663b3e22116100de57806395d89b4111610097578063b88d4fde11610071578063b88d4fde1461038a578063c87b56dd1461039d578063e985e9c5146103b0578063f2fde38b146103c357600080fd5b806395d89b411461035c578063a22cb46514610364578063b1466d1d1461037757600080fd5b8063663b3e22146102e6578063677715d01461030a57806370a082311461031d578063715018a6146103305780638da5cb5b146103385780638eb933ac1461034957600080fd5b8063095ea7b31161014b57806323b872dd1161012557806323b872dd1461028d57806342842e0e146102a057806351640fee146102b35780636352211e146102d357600080fd5b8063095ea7b31461024f5780631692a9421461026457806318160ddd1461028557600080fd5b80630175f8891461019357806301afb73a146101b957806301ffc9a7146101cc5780630385bd18146101ef57806306fdde031461020f578063081812fc14610224575b600080fd5b6101a66101a1366004611879565b6103d6565b6040519081526020015b60405180910390f35b6101a66101c736600461194f565b610407565b6101df6101da3660046119aa565b610432565b60405190151581526020016101b0565b6102026101fd3660046119c7565b61045d565b6040516101b091906119e2565b6102176104c9565b6040516101b09190611a76565b610237610232366004611a89565b61055b565b6040516001600160a01b0390911681526020016101b0565b61026261025d366004611879565b610584565b005b610277610272366004611a89565b610593565b6040516101b0929190611b05565b6008546101a6565b61026261029b366004611b20565b610768565b6102626102ae366004611b20565b6107f8565b6102c66102c1366004611a89565b610818565b6040516101b09190611b5c565b6102376102e1366004611a89565b610990565b6102f96102f4366004611a89565b61099b565b6040516101b0959493929190611b6f565b610202610318366004611bbf565b610ae8565b6101a661032b3660046119c7565b610b56565b610262610b9e565b6007546001600160a01b0316610237565b6101a6610357366004611bf4565b610bb2565b610217610d3b565b610262610372366004611c8d565b610d4a565b610262610385366004611cc9565b610d55565b610262610398366004611d10565b610e22565b6102176103ab366004611a89565b610e3a565b6101df6103be366004611d80565b610f4b565b6102626103d13660046119c7565b610f79565b600a60205281600052604060002081815481106103f257600080fd5b90600052602060002001600091509150505481565b8151602081840181018051600b8252928201918501919091209190528054829081106103f257600080fd5b60006001600160e01b03198216632483248360e11b1480610457575061045782610fb7565b92915050565b6001600160a01b0381166000908152600a60209081526040918290208054835181840281018401909452808452606093928301828280156104bd57602002820191906000526020600020905b8154815260200190600101908083116104a9575b50505050509050919050565b6060600080546104d890611db3565b80601f016020809104026020016040519081016040528092919081815260200182805461050490611db3565b80156105515780601f1061052657610100808354040283529160200191610551565b820191906000526020600020905b81548152906001019060200180831161053457829003601f168201915b5050505050905090565b600061056682611007565b506000828152600460205260409020546001600160a01b0316610457565b61058f828233611040565b5050565b600061059d611823565b600083815260096020908152604091829020825160a0810190935280546001600160a01b0316835260018101805491928401916105d990611db3565b80601f016020809104026020016040519081016040528092919081815260200182805461060590611db3565b80156106525780601f1061062757610100808354040283529160200191610652565b820191906000526020600020905b81548152906001019060200180831161063557829003601f168201915b5050505050815260200160028201805461066b90611db3565b80601f016020809104026020016040519081016040528092919081815260200182805461069790611db3565b80156106e45780601f106106b9576101008083540402835291602001916106e4565b820191906000526020600020905b8154815290600101906020018083116106c757829003601f168201915b50505091835250506003820154602082015260049091015460ff16151560409091015280519091506001600160a01b03161580159061072557508060800151155b8015610761575080516001600160a01b0316610756846000908152600260205260409020546001600160a01b031690565b6001600160a01b0316145b9150915091565b6001600160a01b03821661079757604051633250574960e11b8152600060048201526024015b60405180910390fd5b60006107a483833361104d565b9050836001600160a01b0316816001600160a01b0316146107f2576040516364283d7b60e01b81526001600160a01b038086166004830152602482018490528216604482015260640161078e565b50505050565b61081383838360405180602001604052806000815250610e22565b505050565b610820611823565b600082815260096020908152604091829020825160a0810190935280546001600160a01b03168352600181018054919284019161085c90611db3565b80601f016020809104026020016040519081016040528092919081815260200182805461088890611db3565b80156108d55780601f106108aa576101008083540402835291602001916108d5565b820191906000526020600020905b8154815290600101906020018083116108b857829003601f168201915b505050505081526020016002820180546108ee90611db3565b80601f016020809104026020016040519081016040528092919081815260200182805461091a90611db3565b80156109675780601f1061093c57610100808354040283529160200191610967565b820191906000526020600020905b81548152906001019060200180831161094a57829003601f168201915b50505091835250506003820154602082015260049091015460ff16151560409091015292915050565b600061045782611007565b600960205260009081526040902080546001820180546001600160a01b0390921692916109c790611db3565b80601f01602080910402602001604051908101604052809291908181526020018280546109f390611db3565b8015610a405780601f10610a1557610100808354040283529160200191610a40565b820191906000526020600020905b815481529060010190602001808311610a2357829003601f168201915b505050505090806002018054610a5590611db3565b80601f0160208091040260200160405190810160405280929190818152602001828054610a8190611db3565b8015610ace5780601f10610aa357610100808354040283529160200191610ace565b820191906000526020600020905b815481529060010190602001808311610ab157829003601f168201915b50505050600383015460049093015491929160ff16905085565b6060600b82604051610afa9190611ded565b90815260408051918290036020908101832080548083028501830190935282845291908301828280156104bd57602002820191906000526020600020908154815260200190600101908083116104a95750505050509050919050565b60006001600160a01b038216610b82576040516322718ad960e21b81526000600482015260240161078e565b506001600160a01b031660009081526003602052604090205490565b610ba6611146565b610bb06000611173565b565b6000610bbc611146565b600880549081906000610bce83611e09565b9190505550610bdd86826111c5565b610be781846111df565b6040805160a0810182526001600160a01b03888116825260208083018981528385018990524260608501526000608085018190528681526009909252939020825181546001600160a01b031916921691909117815591519091906001820190610c509082611e76565b5060408201516002820190610c659082611e76565b50606082015160038201556080909101516004909101805460ff19169115159190911790556001600160a01b0386166000908152600a602090815260408083208054600181018255908452919092200182905551600b90610cc7908790611ded565b908152604051908190036020908101822080546001810182556000918252919020018290556001600160a01b0387169082907f5e6f8d0e0c69367b877ce8a6320e7e57e120bebb1ccf1b4b5a7443ee2e0559b490610d2a90899089908990611f36565b60405180910390a395945050505050565b6060600180546104d890611db3565b61058f33838361122f565b610d5d611146565b6000828152600960205260409020546001600160a01b0316610db95760405162461bcd60e51b815260206004820152601560248201527410d95c9d1a599a58d85d19481b9bdd08199bdd5b99605a1b604482015260640161078e565b6000828152600960205260409081902060048101805460ff191660011790555490516001600160a01b039091169083907fe30209e229ea01f995092aa4cd5d70b4cd972c12645ab69fa4884bd9882f778f90610e16908590611a76565b60405180910390a35050565b610e2d848484610768565b6107f233858585856112ce565b6060610e4582611007565b5060008281526006602052604081208054610e5f90611db3565b80601f0160208091040260200160405190810160405280929190818152602001828054610e8b90611db3565b8015610ed85780601f10610ead57610100808354040283529160200191610ed8565b820191906000526020600020905b815481529060010190602001808311610ebb57829003601f168201915b505050505090506000610ef660408051602081019091526000815290565b90508051600003610f08575092915050565b815115610f3a578082604051602001610f22929190611f79565b60405160208183030381529060405292505050919050565b610f43846113f9565b949350505050565b6001600160a01b03918216600090815260056020908152604080832093909416825291909152205460ff1690565b610f81611146565b6001600160a01b038116610fab57604051631e4fbdf760e01b81526000600482015260240161078e565b610fb481611173565b50565b60006001600160e01b031982166380ac58cd60e01b1480610fe857506001600160e01b03198216635b5e139f60e01b145b8061045757506301ffc9a760e01b6001600160e01b0319831614610457565b6000818152600260205260408120546001600160a01b03168061045757604051637e27328960e01b81526004810184905260240161078e565b610813838383600161146e565b6000828152600260205260408120546001600160a01b039081169083161561107a5761107a818486611574565b6001600160a01b038116156110b85761109760008560008061146e565b6001600160a01b038116600090815260036020526040902080546000190190555b6001600160a01b038516156110e7576001600160a01b0385166000908152600360205260409020805460010190555b60008481526002602052604080822080546001600160a01b0319166001600160a01b0389811691821790925591518793918516917fddf252ad1be2c89b69c2b068fc378daa952ba7f163c4a11628f55a4df523b3ef91a4949350505050565b6007546001600160a01b03163314610bb05760405163118cdaa760e01b815233600482015260240161078e565b600780546001600160a01b038381166001600160a01b0319831681179093556040519116919082907f8be0079c531659141344cd1fd0a4f28419497f9722a3daafe3b4186f6b6457e090600090a35050565b61058f8282604051806020016040528060008152506115d8565b60008281526006602052604090206111f78282611e76565b506040518281527ff8e1a15aba9398e019f0b49df1a4fde98ee17ae345cb5f6b5e2c27f5033e8ce79060200160405180910390a15050565b6001600160a01b03821661126157604051630b61174360e31b81526001600160a01b038316600482015260240161078e565b6001600160a01b03838116600081815260056020908152604080832094871680845294825291829020805460ff191686151590811790915591519182527f17307eab39ab6107e8899845ad3d59bd9653f200f220920489ca2b5937696c31910160405180910390a3505050565b6001600160a01b0383163b156113f257604051630a85bd0160e11b81526001600160a01b0384169063150b7a0290611310908890889087908790600401611fa8565b6020604051808303816000875af192505050801561134b575060408051601f3d908101601f1916820190925261134891810190611fdb565b60015b6113b4573d808015611379576040519150601f19603f3d011682016040523d82523d6000602084013e61137e565b606091505b5080516000036113ac57604051633250574960e11b81526001600160a01b038516600482015260240161078e565b805160208201fd5b6001600160e01b03198116630a85bd0160e11b146113f057604051633250574960e11b81526001600160a01b038516600482015260240161078e565b505b5050505050565b606061140482611007565b50600061141c60408051602081019091526000815290565b9050600081511161143c5760405180602001604052806000815250611467565b80611446846115f0565b604051602001611457929190611f79565b6040516020818303038152906040525b9392505050565b808061148257506001600160a01b03821615155b1561154457600061149284611007565b90506001600160a01b038316158015906114be5750826001600160a01b0316816001600160a01b031614155b80156114d157506114cf8184610f4b565b155b156114fa5760405163a9fbf51f60e01b81526001600160a01b038416600482015260240161078e565b81156115425783856001600160a01b0316826001600160a01b03167f8c5be1e5ebec7d5bd14f71427d1e84f3dd0314c0f7b2291e5b200ac8c7c3b92560405160405180910390a45b505b5050600090815260046020526040902080546001600160a01b0319166001600160a01b0392909216919091179055565b61157f838383611683565b610813576001600160a01b0383166115ad57604051637e27328960e01b81526004810182905260240161078e565b60405163177e802f60e01b81526001600160a01b03831660048201526024810182905260440161078e565b6115e283836116e6565b6108133360008585856112ce565b606060006115fd8361174b565b600101905060008167ffffffffffffffff81111561161d5761161d6118a3565b6040519080825280601f01601f191660200182016040528015611647576020820181803683370190505b5090508181016020015b600019016f181899199a1a9b1b9c1cb0b131b232b360811b600a86061a8153600a850494508461165157509392505050565b60006001600160a01b03831615801590610f435750826001600160a01b0316846001600160a01b031614806116bd57506116bd8484610f4b565b80610f435750506000908152600460205260409020546001600160a01b03908116911614919050565b6001600160a01b03821661171057604051633250574960e11b81526000600482015260240161078e565b600061171e8383600061104d565b90506001600160a01b03811615610813576040516339e3563760e11b81526000600482015260240161078e565b60008072184f03e93ff9f4daa797ed6e38ed64bf6a1f0160401b831061178a5772184f03e93ff9f4daa797ed6e38ed64bf6a1f0160401b830492506040015b6d04ee2d6d415b85acef810000000083106117b6576d04ee2d6d415b85acef8100000000830492506020015b662386f26fc1000083106117d457662386f26fc10000830492506010015b6305f5e10083106117ec576305f5e100830492506008015b612710831061180057612710830492506004015b60648310611812576064830492506002015b600a83106104575760010192915050565b6040518060a0016040528060006001600160a01b031681526020016060815260200160608152602001600081526020016000151581525090565b80356001600160a01b038116811461187457600080fd5b919050565b6000806040838503121561188c57600080fd5b6118958361185d565b946020939093013593505050565b634e487b7160e01b600052604160045260246000fd5b600067ffffffffffffffff808411156118d4576118d46118a3565b604051601f8501601f19908116603f011681019082821181831017156118fc576118fc6118a3565b8160405280935085815286868601111561191557600080fd5b858560208301376000602087830101525050509392505050565b600082601f83011261194057600080fd5b611467838335602085016118b9565b6000806040838503121561196257600080fd5b823567ffffffffffffffff81111561197957600080fd5b6119858582860161192f565b95602094909401359450505050565b6001600160e01b031981168114610fb457600080fd5b6000602082840312156119bc57600080fd5b813561146781611994565b6000602082840312156119d957600080fd5b6114678261185d565b6020808252825182820181905260009190848201906040850190845b81811015611a1a578351835292840192918401916001016119fe565b50909695505050505050565b60005b83811015611a41578181015183820152602001611a29565b50506000910152565b60008151808452611a62816020860160208601611a26565b601f01601f19169290920160200192915050565b6020815260006114676020830184611a4a565b600060208284031215611a9b57600080fd5b5035919050565b60018060a01b0381511682526000602082015160a06020850152611ac960a0850182611a4a565b905060408301518482036040860152611ae28282611a4a565b915050606083015160608501526080830151151560808501528091505092915050565b8215158152604060208201526000610f436040830184611aa2565b600080600060608486031215611b3557600080fd5b611b3e8461185d565b9250611b4c6020850161185d565b9150604084013590509250925092565b6020815260006114676020830184611aa2565b6001600160a01b038616815260a060208201819052600090611b9390830187611a4a565b8281036040840152611ba58187611a4a565b606084019590955250509015156080909101529392505050565b600060208284031215611bd157600080fd5b813567ffffffffffffffff811115611be857600080fd5b610f438482850161192f565b60008060008060808587031215611c0a57600080fd5b611c138561185d565b9350602085013567ffffffffffffffff80821115611c3057600080fd5b611c3c8883890161192f565b94506040870135915080821115611c5257600080fd5b611c5e8883890161192f565b93506060870135915080821115611c7457600080fd5b50611c818782880161192f565b91505092959194509250565b60008060408385031215611ca057600080fd5b611ca98361185d565b915060208301358015158114611cbe57600080fd5b809150509250929050565b60008060408385031215611cdc57600080fd5b82359150602083013567ffffffffffffffff811115611cfa57600080fd5b611d068582860161192f565b9150509250929050565b60008060008060808587031215611d2657600080fd5b611d2f8561185d565b9350611d3d6020860161185d565b925060408501359150606085013567ffffffffffffffff811115611d6057600080fd5b8501601f81018713611d7157600080fd5b611c81878235602084016118b9565b60008060408385031215611d9357600080fd5b611d9c8361185d565b9150611daa6020840161185d565b90509250929050565b600181811c90821680611dc757607f821691505b602082108103611de757634e487b7160e01b600052602260045260246000fd5b50919050565b60008251611dff818460208701611a26565b9190910192915050565b600060018201611e2957634e487b7160e01b600052601160045260246000fd5b5060010190565b601f82111561081357600081815260208120601f850160051c81016020861015611e575750805b601f850160051c820191505b818110156113f057828155600101611e63565b815167ffffffffffffffff811115611e9057611e906118a3565b611ea481611e9e8454611db3565b84611e30565b602080601f831160018114611ed95760008415611ec15750858301515b600019600386901b1c1916600185901b1785556113f0565b600085815260208120601f198616915b82811015611f0857888601518255948401946001909101908401611ee9565b5085821015611f265787850151600019600388901b60f8161c191681555b5050505050600190811b01905550565b606081526000611f496060830186611a4a565b8281036020840152611f5b8186611a4a565b90508281036040840152611f6f8185611a4a565b9695505050505050565b60008351611f8b818460208801611a26565b835190830190611f9f818360208801611a26565b01949350505050565b6001600160a01b0385811682528416602082015260408101839052608060608201819052600090611f6f90830184611a4a565b600060208284031215611fed57600080fd5b81516114678161199456fea26469706673582212207cb9542c88fb98d0ff09713b5470724587730ddc8a8824f5091f34bd181f9ee464736f6c63430008140033",
  "linkReferences": {},
  "deployedLinkReferences": {}
}